:020000021000EC
:10000000E03F082095010100FB000100E100010034
:10001000090101001901010029010100000000008F
:10002000000000000000000000000000E1A301004B
:10003000390101000000000071A401005901010014
:100040001DAA01001DAA01001DAA01001DAA010090
:100050001DAA01001DAA01001DAA01001DAA010080
:100060001DAA01001DAA01001DAA01001DAA010070
:100070001DAA01001DAA01001DAA01001DAA010060
:100080001DAA01001DAA01001DAA01001DAA010050
:100090001DAA01001DAA01001DAA01001DAA010040
:1000A0001DAA01001DAA01001DAA01001DAA010030
:1000B0001DAA01001DAA01001DAA01001DAA010020
:1000C0001DAA01001DAA01001DAA0100F85B020083
:1000D00000C00720FC02000000C3072080040000CD
:1000E00004207146084203D0EFF309800AF0B4BC43
:1000F000EFF308800AF0B0BC704708B5014807F07C
:10010000D5FAFEE7AA55020008B5024807F0CEFA74
:10011000FEE700BFB555020008B5024807F0C6FA71
:10012000FEE700BFC055020008B5024807F0BEFA5E
:10013000FEE700BFCB55020008B5024807F0B6FA4B
:10014000FEE700BFD855020008B5024807F0AEFA36
:10015000FEE700BFE655020008B50AF007F90AF00D
:10016000A9F9BDE808400AF015B90B4610B5401AC8
:100170005C1AA24203D9C45843F8044BF8E710BDF7
:100180000346002210B51C1AA14202D943F8042BE1
:10019000F9E710BD15480AF00FFA14480AF00FFAF3
:1001A000134C144DAC4209D3134DAC420ED254F84B
:1001B000080B54F8041CFFF7E3FFF6E794E803008C
:1001C0000C3454F8042CFFF7D0FFEBE70CF088F860
:1001D0000AF00CFA01F0D0FD02F0E4FB4FF41640F7
:1001E0000AF05AFD054807F061FAFEE7E03F0820F3
:1001F000CC000100D8000100E0000100FA55020027
:100200000AF01AB90AF02AB9124B30B51A68014639
:1002100012B94FF080521A6018680F4A44180F4DF7
:100220002244AA4297BF0E4A1C60881818601C68B6
:1002300098BF10460B4A944282BF01321A600020D8
:1002400039B1094A136801331360084B1860084B31
:10025000196030BD08C30720FF7FFFEFFE3F071086
:1002600080C70720FF3F082000C3072004C30720E2
:100270000CC307200CF060B90CF066B90CF064B93F
:1002800030B504468BB068460CF01EFC214B224D65
:100290002360089B214AA360079B636053B91368DE
:1002A0001F498B428ABF03F1604303F17043A3F5FA
:1002B000E823636000236168E360B1F5803F82BF9B
:1002C00001F17041A1F5E82161601168144A914281
:1002D00013D8C5F10053521A03F504231A44E260FF
:1002E0002046104BE1611B68A3610F4B1B686361E3
:1002F0000E4B1B6823610BB030BD0D4B9942EFD8FC
:10030000C1F1804303F580135B1B002BC8BFE36082
:10031000E6E700BF8007000080C7072008C307206A
:100320000080001004C307200CC3072000C307206F
:10033000FF3F0820014B1860704700BF14C307201F
:10034000014B1860704700BF10C3072008B5024872
:100350000DF056FBFEE700BF422E020008B5024832
:100360000DF04EFBFEE700BF282E02000020704774
:1003700001207047F8B5084C164622680F461AB19E
:100380000D46EB1BB34201DB3046F8BD236815F880
:10039000010B9847F5E700BF14C30720F8B5094CD7
:1003A0000F462068164628B10D46EB1BB34202DB10
:1003B00026EAE670F8BD23680020984705F8010B8F
:1003C000F3E700BF10C30720704700207047FFFF0E
:1003D000074B1B689A68824207D05A68824204D051
:1003E000DB681B1A5842584170470120704700BF14
:1003F000E0C00720002070470020704730B5044659
:100400008DB0A8B30025684608F048F99DF8003083
:1004100003A803F03F0303939DF801300B9503F00D
:100420003F0304939DF8023003F01F0305939DF8EA
:10043000043003F01F0306939DF8053003F00F030B
:10044000013B0793BDF80630C3F30B03A3F26C73B3
:1004500008939DF8033003F007030993BDF80830B3
:10046000C3F30B03013B0A930CF0B2F984E82100BB
:1004700000200DB030BDFFFF70B5104D104E2C7830
:10048000BFF35B8F14F0010415D128460AF0CDFCB0
:1004900088B14FF40E70FFF7EDFE302380F835324F
:1004A0003A2380F8344280F8363280F837423060A0
:1004B00028460AF0C6FC306870BD00BF30C3072074
:1004C00034C3072070B5104D104E2B78BFF35B8FEF
:1004D00013F0010416D128460AF0A7FC90B14FF49E
:1004E0000E70FFF7C7FE012380F83432312380F805
:1004F00035323A2380F8374280F836323060284669
:100500000AF09FFC306870BD28C307202CC3072069
:100510002DE9F04FADF50B7D0F4607F0F7FC041EFB
:1005200004DD09F0EFFE204609F082FC0DF114090C
:100530004C462A4D4FF0640B0FCD0FC42B6804AA14
:100540002360002410210AA8049409F099FC244A8D
:1005500082462449384608F00BFB26464FF0000837
:100560000AADD0451CD06B69A34215D1AA69049B82
:1005700016441BB1B3FBFBF3B2FBF3F3297B0392ED
:100580000293AB8B00949B00019359F821306A6869
:100590001549384608F0ECFA08F101082035E0E783
:1005A00001340A2CDAD16422049B10499E1BB3FB50
:1005B000F2F30096B6FBF3F30D4A384608F0D8FA8A
:1005C00009F00CFB102804D910220A49384608F01B
:1005D000CFFA01200DF50B7DBDE8F08F5C2E0200F7
:1005E0000C3402001134020038340200603402007E
:1005F000553402007F34020010B50C46ADF5007D85
:1006000068460AF091F920464FF0FF32694608F03B
:1006100079FA01200DF5007D10BDFFFF30B50C46C5
:1006200091B02C49054607F07EFB002848D00CAB62
:1006300004930BAB03930AAB029309AB019308AB92
:10064000009306AA07AB2449284607F0D4FA0728E6
:1006500002D0002011B030BD9DF83930069A0DA8A7
:1006600062F303038DF83930079A9DF8383062F34E
:1006700004038DF83830089ABDF83A3062F30B0362
:10068000ADF83A30099A9DF8363062F304038DF8DC
:1006900036300A9A9DF8353062F305038DF835300F
:1006A0000B9A9DF8343062F305038DF834300C9AC0
:1006B0009DF8373062F302038DF8373008F012F8F6
:1006C00008F0ACF805490246204608F051FA01202E
:1006D000C0E700BF873002008B3002006C4E020082
:1006E000F7B50D465049044607F00CFC064650B1DC
:1006F00006F072FE4FF0FF324C49284608F002FA2D
:10070000012003B0F0BD4A49204607F0FBFB60B36F
:1007100006F086FE47490246284608F029FA06F008
:100720008BFE45490246284608F022FA06F07EFE76
:1007300042490246284608F01BFA304606F066FE9B
:100740000446012006F062FE0646022006F05EFE28
:100750000746032006F05AFE0097019033462246D2
:100760003749284608F004FACAE73649204607F018
:10077000DAFA50B120220121204607F071FB204611
:1007800007F0C2FB06F072FFBAE72F49204607F0D8
:10079000CAFA0646F8B92D49204607F0C4FAD0B97E
:1007A000204607F0B1FBF5230090294A2949012092
:1007B00006F0C0FE204607F0A7FB27490246284660
:1007C00008F0D6F99CE7032416E0022414E0234B3A
:1007D00024E0234B22E02349204607F092FA002828
:1007E000F3D12149204607F08CFA0028EBD12046AE
:1007F0001B4907F086FA04463146204606F08CFE77
:100800001A4B1B4A002E08BF1A46002CDFD0012CC1
:10081000DFD01549134B022C18BF0B46154928464B
:1008200008F0A6F96CE700BF792F02007F2F0200C5
:10083000982F02009F2F0200B42F0200C92F020040
:10084000E82F0200183002001C30020024300200A1
:10085000D13502004630020079300200682F0200D4
:1008600019410200742F02006E2F02005F2F020058
:10087000572F02002D30020030B5002489B004ABA0
:1008800000930D4603AB022218490394049407F029
:10089000C0F9022828D107AB009305AA06AB04993A
:1008A000039805940694079403F0A6FA024648B10B
:1008B000049B0F4900932846039B08F059F9012037
:1008C00009B030BD059A069B002A08BF0122002B03
:1008D00008BF012307992846B1FBF3F3B1FBF2F2FD
:1008E000044908F045F9EAE72046E9E7B940020083
:1008F000A9340200C83402002DE9F0470E46ADF5D8
:10090000856D3849054607F097FA37490746284666
:1009100007F0BBFA3449284607F0D7FA284607F013
:10092000F3FA0122014681A805F096FA044660B167
:10093000284607F0E9FA2D490246304608F018F932
:1009400001200DF5856DBDE8F0870DF1040A014623
:100950004FF4007250460BF053FE009409F0CEFFA6
:10096000804689466B464FF40072514681A805F0D7
:100970000AFB08B9009B23BB81A805F0D7FCCFB1C7
:1009800009F0BCFF4FF47A7200230BF029FA002320
:1009900005464FF47A72404649460BF021FA281A70
:1009A00014BF034601232246B4FBF3F3104930463B
:1009B00008F0DEF84FF0FF320E49304608F0A2F89A
:1009C000BEE71C44002FCDD13D46009B9D42C9D2BD
:1009D00033681AF805105B684FF0FF3230469847CD
:1009E0000135F2E7702E0200B9400200792E0200B4
:1009F0008D2E0200DC36020000232DE9F04F0C465C
:100A0000C1B0564905460E9307F07CFA98B92846BE
:100A100007F07AFA0646314617A805F040FD05466C
:100A200058B1034632464E49204608F0A1F801204D
:100A300041B0BDE8F08F4B4EEDE732464A492046C3
:100A400008F096F82F46DFF8309180230DF18008EA
:100A50000FA917A8CDF85480169305F063FD002860
:100A600063D19DF84530002B5FD09DF84410BDF850
:100A70004200CA065BBF0E9B0F9A44229B185BBFC5
:100A80000E932D220135013711F0010F14BF5223AF
:100A90002D2311F0020F14BF4FF0480E4FF02D0E12
:100AA00011F0040F14BF4FF0530C4FF02D0C11F048
:100AB000200F14BF4FF0410A4FF02D0ABDF840102F
:100AC0000DF1450BCDF824B0C0F3451BC0120690C4
:100AD00001F01F000B9305900F9BC1F343104912C7
:100AE00001F2BC71CDF804C0CDF800E00893049089
:100AF0000B9B0391CDF81CB04946CDF808A02046C9
:100B000008F036F84FF0FF321849204607F0E6FFAC
:100B100041464FF0FF32204607F0E0FF4FF0FF3232
:100B20000E49204607F0EEFF8FE73A461049009540
:100B30000E9B204608F01CF80DAA0EA9304605F0C1
:100B400020FD00287FF473AF0D9B0E9A9B78094916
:100B50005A432046520808F00BF868E7DC360200DA
:100B6000F9340200F63402001D350200653502003A
:100B700069350200933502003835020070B50C4625
:100B8000064607F0C1F90546304607F0BDF905F005
:100B9000BBFD064A064B0749002808BF13462A46F4
:100BA000204607F0E5FF012070BD00BF7F33020043
:100BB00089330200AB31020070B50C46064607F0DF
:100BC000A3F90546304607F09FF905F03EFD064AB9
:100BD000064B0749002808BF13462A46204607F05F
:100BE000C7FF012070BD00BF7F33020089330200C0
:100BF000BF3502007FB5002403AB00930E4602AB65
:100C000002220F490294039407F003F8022815D139
:100C1000029C039D2046294605F01FFE094B0A4908
:100C2000224600280CBF084618462B46009007496C
:100C3000304607F09DFF012004B070BD2046FBE761
:100C4000B9400200893302007F330200A735020059
:100C500030B5ADF50D7D0C46054607F055F90A2275
:100C6000014603A805F0F8F858B1284607F04CF9FA
:100C700021490246204607F07BFF01200DF50D7D3E
:100C800030BD8DF80700029042F210737E221B499E
:100C9000204607F06DFF1A49204607F069FF194DFD
:100CA000236842F210721B680DF107012046984735
:100CB00018B19DF807307E2B0FD103A805F036FB45
:100CC000DBE7029B012B11D123684FF0FF325B68F9
:100CD0009DF8071020469847E2E702AB01220DF18C
:100CE000070103A805F007FA0028EAD029462046A4
:100CF00007F03EFFD4E700BFD2320200F932020013
:100D0000313302005133020000232DE9F04FADF5DD
:100D1000437D06AC236005930E46009405AB02228A
:100D2000404906F076FF02280AD04FF0FF323E49D4
:100D3000304607F0E7FE01200DF5437DBDE8F08F5A
:100D4000216819A805F0ABFB28B122683749304665
:100D500007F00EFFEFE7059919A805F0A0FB10B109
:100D6000059A3349F3E74FF4807242A907A806F0C9
:100D700013FF4FF4807282A90CA806F00DFF2D4FCF
:100D80000DF1880A4FF0800811A919A8CDF85CA0D0
:100D9000CDF8608005F0C6FB10B99DF84D3033B931
:100DA0000CA806F00DFF07A806F00AFFC3E79DF8A0
:100DB0004C5015F01005E7D10DF14D03059A394659
:100DC00007A807F0EBF8226839460DF14D030CA88F
:100DD00007F0E4F807A807F097F880460CA807F09A
:100DE00093F8119B814607A8039307F08DF883467B
:100DF0000CA807F089F82B462A460146009558466C
:100E000002F0FAFF0C4B0D4A0D49002818BF1A4694
:100E1000039B0192009342464B46304607F0A8FEE2
:100E2000B0E700BFB9400200A82E0200ED2E02007C
:100E3000122F0200322F0200893302007F3302009A
:100E4000382F0200F8B50D462349064607F05AF838
:100E5000044698B1FFF736FB002200F23520114618
:100E600005F08AFD4FF0FF321C4B1D49002818BFCA
:100E70001946284607F046FE2046F8BD1949304677
:100E800007F040F8044610B1FFF7F6FAE4E7164918
:100E9000304607F037F8044658B1FFF713FB01223C
:100EA00000F2352104F09AFF4FF0FF320F4B10494A
:100EB000DCE71049304607F025F804460028DBD06F
:100EC000FFF7DAFA012200F2352104F087FF4FF034
:100ED000FF32094B0949C9E7E033020082330200BF
:100EE00078330200EA330200F73302009F33020036
:100EF0008F33020000340200C4330200B633020014
:100F000008B508464FF0FF32084907F0FBFD06F030
:100F100063FA4FF4FA6008F08BFF4FF08043AA2287
:100F20001A7200221A70012008BD00BF723202003E
:100F300010B501200C4606F023FE60B100231A46CE
:100F4000194608F0ECFA4FF0FF320549204607F049
:100F5000D9FD012010BD4FF0FF320249F6E700BF76
:100F6000833202009932020038B5064C236833B947
:100F70001C20FFF77FF9054607F08CFA25602068F2
:100F800038BD00BF20C307202DE9F04F604C91B061
:100F900023680E4633B92C20FFF76CF9054607F09D
:100FA00013FD25602768FFF767FA00240CAA0DA936
:100FB00000F235200D9405F0E4FA00284FD10C9B87
:100FC0000D9C9D789B696C43023B5D4364086D08F2
:100FD000504B1A6898467AB90C20FFF74BF98146B6
:100FE000FFF7C2FF902389F804300023C9F80000FE
:100FF000C9F80830C8F80090D8F8000002F0EAFEFE
:1010000081460AF0A7FE0A900AF000FD0146484614
:101010000AF046FC40490AF04DFD0AF09BFE81466D
:101020000DA809F0D9FA03F015FE002869D007F0E1
:101030006DFC4FF0000A03F0F7FDD3460346D0469F
:101040009A450B930DD0504603F052FE804538BFB1
:10105000D3460B9B38BF80460AF1010AF0E72546CC
:10106000B6E707F06BFC642303FB08F32B4ACDF8CB
:101070000880B3FBF2F3C3F164030093CDF804B02E
:101080002B4622462649304607F072FD254C236840
:101090001BB90120FFF7EEF82060206802F05EFE29
:1010A000044607F0BBFBFB8C0A9A0993BB8C1E49D4
:1010B00008939DF83430019003F03F0307939DF8A7
:1010C0003530009403F03F0306939DF836303046E8
:1010D00003F01F030593BDF83A30C3F30B030493E9
:1010E0009DF8383003F01F0303939DF8393003F067
:1010F0000F0302934B4607F03BFD012011B0BDE802
:10110000F08F2B4622460949304607F031FDBDE7F6
:1011100024C3072018C3072000002041A086010037
:10112000C73102001CC3072009320200FB31020054
:101130002DE9F04F0C46C7B05749814606F00AFE2C
:1011400056490746484606F005FE55498346484637
:1011500006F000FE00260DF1100805AD824602964D
:101160000396C8F800602E60002F4BD0009503ABAB
:1011700002AA4C49484606F03EFD01280ADC4FF021
:10118000FF324949204607F0BDFC3746384647B094
:10119000BDE8F08F4FF480790DF118084A463146CA
:1011A00040460BF02DFA2B6833BB01232B60FFF771
:1011B000DBFE2B689DF80C209DF808100093434639
:1011C00007F09AFD394A3A4B3A49002818BF1346AE
:1011D000029A204607F0CCFC0026DFF8F0902B683E
:1011E0009E42D3D2039A18F806303244494620462C
:1011F00007F0BEFC0136F2E7B3F5807F88BFC5F883
:101200000090D4E7BBF1000F2CD0CDF8008003ABE9
:1012100002AA2949484606F0EEFC032806D04FF002
:10122000FF322649204607F06DFCAFE7FFF79CFE32
:1012300098F800309DF80C209DF8081007F071FD1B
:1012400050B1039B1E490093D8F80020029B204612
:1012500007F08EFC5F4699E7029A1A49204607F08C
:1012600087FCF7E7A8B10223174D0293029BFE2BE0
:101270000FDCFFF779FE9DF8081007F05DFD20B147
:10128000029A2946204607F073FC029B0233029320
:10129000ECE757467AE700BFD8410200A4300200CD
:1012A000AA300200B3300200C23002007F330200D5
:1012B00089330200E33002001731020027310200B7
:1012C0004E31020068310200853102000731020010
:1012D00070B5ADF50A7D05460C4606F083FC0B287B
:1012E00005DD0C221F49204607F042FC30E028466D
:1012F00006F00AFE0122014601A804F0ADFD0646F3
:1013000050BB01A805F012F8284606F0FDFD16496D
:101310000246049B204607F02BFC236820469B686E
:1013200098470A2008F084FD09F07AF8284606F06C
:10133000EBFD02460D4B0068516803C390680C4AF0
:10134000186043F80C2C4FF08043AA221A721E70CA
:1013500001200DF50A7D70BD284606F0D5FD054932
:101360000246C0E76F36020096360200484002404F
:101370000DD0ADDEDD3602002DE9F041414CA4B0C8
:1013800023780646DB070D46BFF35B8F0CD420465F
:1013900009F04BFD40B14FF480600BF0CDF83A4BB3
:1013A0001860204609F04DFD3849304606F0D2FC61
:1013B0000746044630B38022002104A80BF020F930
:1013C00000230293039303AB009304AA02AB3049BA
:1013D000304606F010FC2C49029B039A096804A8C9
:1013E0006BB902F0A3FD2B4B2B49002818BF1946FF
:1013F000284607F0BDFB384624B0BDE8F08102F076
:10140000B7FDF0E72549304606F0A4FC0746002862
:10141000F1D004AB304603AA2149039404948DF81B
:10142000084006F0E8FB039E049B3344B3F5806F4D
:1014300013DCDFF85480039B049AF31A93421DDAFD
:10144000B6F5806F1ADA2B684FF4FA621B6802A9AE
:101450002846984740B91349CAE74FF480621249B9
:10146000284607F085FBC6E7D8F800309DF808202D
:101470009A559DF8083001361C44DCE722460B499A
:10148000EEE700BF38C307203CC307200636020042
:101490000D360200F4350200F03502001D36020060
:1014A00024360200523602002E3602006236020056
:1014B00030B50C46054687B00A4907F059FBA188AC
:1014C00023880491218962880391E188284602914A
:1014D000E17A0191A17A0091034907F049FB07B035
:1014E00030BD00BFEE3B0200243C02001FB501A846
:1014F0000C4601F08DFF01F071FC01A90246204667
:10150000FFF7D6FF012004B010BDFFFF2DE9F04129
:1015100000268CB003AB00930D46904602AB02222E
:1015200038490296039606F074FBB04229DD029812
:101530000AF0E5FDC7B2039808B10CF067FD324E22
:10154000C4B2002104A802F0CFFA30B14FF0FF324C
:101550003146284607F0D6FAF3E7022318F10001D6
:101560000093039A234618BF0121384601F06CFD11
:10157000064650B94FF0FF322449284607F0C2FA18
:10158000012630460CB0BDE8F081B8F1000FF8D06C
:101590004FF47A7104A802F0AFFA60B39DF81030EE
:1015A000BB4228D19DF817300C2B04D13A4606A92E
:1015B0002846FFF77DFFBCB91549284607F0D8FA41
:1015C0009DF817309C420ADA04AB19192B684FF0CA
:1015D000FF325B68097A284698470134F0E70D49E5
:1015E000284607F0C5FACCE74FF0FF320A492846F3
:1015F00007F088FAC5E7029A0849284607F0B8FAC2
:10160000BFE700BFB94002002B3902004D3902008C
:1016100075390200363D020089390200A639020000
:1016200038B50D4606F072FC0446C0B201F0CAFBA4
:10163000054A064B0649002818BF1346224628468D
:1016400007F096FA012038BD7F330200CC39020042
:10165000D339020073B50C4601F038FD0546164932
:10166000204607F085FA15492A46204607F080FAF9
:101670001149204607F07CFADDB11149204607F0F8
:1016800077FA0D49204607F073FA00250D4EE8B2AF
:1016900001F006FD013540B1817843780278009170
:1016A0002046314607F064FAF1E70349204607F087
:1016B0005FFA012002B070BDF63602001137020059
:1016C0002B370200463702004FF47A73F0B58BB027
:1016D0000AAA0C4642F8243D184906F08CFA002567
:1016E000174F184E019902A802F0FEF9D8B19DF8E3
:1016F00008203946204607F03BFA00259DF80F30B8
:101700009D420ADA02AB591923684FF0FF325B6839
:10171000097A204698470135F0E73146204607F020
:1017200027FA0125DEE72DB94FF0FF3206492046A2
:1017300007F0E8F901200BB0F0BD00BF2B36020026
:1017400003390200DB3602001A3902002DE9F347A3
:101750003C4C074626688946002E62D12420FEF7BD
:1017600089FD0423054680E848008660C660202184
:1017700030460CF0AFF9AE68E8604FEA8608072EF5
:101780000ED81020FEF776FD8246102200210AF0C6
:1017900037FFEB68013643F808A008F10408EEE7CC
:1017A000002608234FF001086B60274A274B284981
:1017B0002846009685F82080256005F06DFB254BB6
:1017C000254A26492068009605F066FB244B254AE9
:1017D00025492068009605F05FFB244B244A2549E3
:1017E0002068009605F058FB234B244A24492068C2
:1017F000009605F051FB234B234A24492068CDF87D
:10180000008005F049FB224B224A204920680096BF
:1018100005F042FB0096204B204A2149206805F044
:101820003BFB2049384606F06DFB18B11E4938468F
:1018300006F023FC4A463946206802B0BDE8F0476E
:1018400005F00EBC44C307209B370200613702003D
:10185000F91A0100A2370200F6370200CD18010084
:10186000FF37020022380200C916010025380200A5
:10187000163E0200211601004F3802006B380200AC
:101880005516010072380200D93802000D1501000A
:10189000B3380200D8380200DD380200F838020000
:1018A000ED140100DC360200FE38020038B5064CAB
:1018B000236833B95820FEF7DDFC054606F0CEFE5E
:1018C0002560206838BD00BF40C307202DE9F04FD8
:1018D000ADF2DC5D044680220DF1B40988460DA806
:1018E00000210AF08DFE8022002148460AF088FE81
:1018F000002306AE33600DAA00964B46744920467D
:1019000006F079F9032804D000200DF2DC5DBDE873
:10191000F08F01220DA9EDA804F09EFA05460028DB
:10192000F2D1FFF7C3FF3368802280F853304DA90E
:10193000044608A88DF81750079506F02DF9CDF844
:10194000009033680DAA6349404607F011F92F460D
:1019500007AB4FF400726DA9EDA804F014FB00284A
:1019600040F0AD80079B002B00F0A980022D00F213
:10197000A68007AE32685849204607F0F9F8236878
:1019800020469B6898474FF0000A0DF5DA7B6DAB57
:101990003268ABEB03039A4223680CD9CDF80CB044
:1019A0005B684FF0FF321BF8011B20469847039BF2
:1019B0001B789A44EBE79B682046984708A806F0F6
:1019C000A3FA834608A806F010F94FF47A7302468A
:1019D0005946204607F0A4F8202201210DEB020011
:1019E00006F03EFA08A806F091FA82451CD008A835
:1019F00006F08CFA524603463849404607F0B8F8DC
:101A00003749204607F0B4F8236820469B6898477A
:101A100023684FF47A721B680DF11701204698472E
:101A20000028F5D10135A1E733684A462D490093D6
:101A300020463B4607F09CF8236820469B68984761
:101A400008A806F061FA824608A806F0CEF85146CA
:101A500002464FF47A73204607F062F8224908A83C
:101A600006F04FF9D0B908A806F04EFA1F49024611
:101A7000404607F07DF81A49204607F079F82368B8
:101A800020469B68984723684FF47A721B680DF1D3
:101A90001701204698470028F5D1C3E7144908A844
:101AA00006F0EBFA336813491F443A46F09B404670
:101AB00007F05EF8002D3FF44BAF013D48E7EDA87D
:101AC00004F034FC08A806F07BF801201DE700BFF5
:101AD000EA390200F9390200103A0200223A020003
:101AE000DB360200493A02005F3A0200623A020025
:101AF000DC3602009A3A02002DE9F047002407463E
:101B000086B006AA42F80C4D0E463D4906F073F821
:101B100020220121384606F0A3F9039B002B68D050
:101B2000384606F05FF8002863D0FFF7BFFE054691
:101B30000DF1180808F80D4D2B6805221B68414669
:101B40002846984704460028F6D1039B384685F876
:101B5000533006F0D9F9274601464FF0FF322846A8
:101B600006F0D0FF2B6828469B689847254B0DF15F
:101B70001809186849F8044D04902B684FF47A72DC
:101B80001B68414628469847D0B103220DF1150144
:101B900048460AF01BFD9DF80BA0042204A9484604
:101BA0008DF817A00AF0F8FC50B1336801225B6889
:101BB00051463046013798470028DED10134DCE732
:101BC0001822B7FBF2F302FB137202B101333A465B
:101BD0000D49304606F0CCFF3CB16123224600930C
:101BE0000A490B4B304606F0C3FF012006B0BDE8A2
:101BF000F0874FF0FF320749304606F083FFF4E7E5
:101C00002B360200F2360200A63A0200093B02001F
:101C1000CD3A0200C23B020001480BF0F1BE00BF0A
:101C2000F63F020038B504460D4608F0E1FF074BC9
:101C3000B0FBF3F00223B0FBF3F2AA4204D9B3F5F0
:101C4000807F01D00233F6E7236138BD40420F00A8
:101C50007FB500F235260C460122314604F0BEF86D
:101C6000054638BB039002AA03A9304604F089FC5C
:101C700040BB0298039B827803FB02F18369124800
:101C8000023B5A435208B2F5004F38BF01200F4BB8
:101C900024BF03464FF480604908B1FBF0F1B2FB6A
:101CA000F0F200910193214609480BF035FE012026
:101CB00004B070BD074B2A46214607480BF02CFEA6
:101CC0000020F5E7054BF6E7344002003140020002
:101CD0003E4002003B4002006C40020037400200E0
:101CE00038B5074C23684BB90820FEF7C3FA054600
:101CF000FFF73AF9402328602B712560206838BD32
:101D000050C3072038B5054C256825B90120FEF7DA
:101D1000B1FA05702060206838BD00BF4CC30720B1
:101D200038B5084C23685BB90C20FEF7A3FA0546CA
:101D3000FFF71AF990232B7100232860AB60256010
:101D4000206838BD18C3072010B5044C23681BB9A0
:101D50000120FEF78FFA2060206810BD1CC3072009
:101D600010B5044C23681BB90120FEF783FA2060EC
:101D7000206810BD48C307204023B349F0B58B61EC
:101D80004FF00073B14A072593614FF480338B61A4
:101D9000AF4B02241868ADF5057D20F0F000186007
:101DA000186840F050001860186820F4405018601F
:101DB000086840F040000860186820F47C20186033
:101DC000186840F428201860186820F47000186023
:101DD000186840F420001860186820F0404018602F
:101DE000186840F000401860586820F03C005860C7
:101DF000586840F028005860586820F00300586088
:101E0000086840F480300860586820F440505860FA
:101E1000086820F480000860D96821F44031D96056
:101E2000116841F080711160596821F440215960B6
:101E3000596841F480215960986886490140996049
:101E4000116841F4897141F001011160996821F430
:101E500070119960996821F070419960116821F4BE
:101E600046411160D96821F03001D960D96841F04C
:101E70003001D960D96821F47011D960136843F03A
:101E800000731360136823F08063136006F050F949
:101E900001210A2008F0CAFC01210A2008F0E0FC18
:101EA0006D48012105604460FFF7BCFE06F0C0FCF0
:101EB0000121152008F0BAFC0121152008F0D0FC02
:101EC0006648012105604460FFF7ACFEFFF74CF85F
:101ED000642106F0ABFA10B961480BF091FD08F0EF
:101EE000E3FC01F0DBFD10B95E480BF089FD4FF417
:101EF000FA6006F0D9F8FFF78FFE08F079FE09F0D6
:101F000081FD594909F08AFE09F002FC02460B46A0
:101F100056480BF001FD08F059FB052804AC14D11C
:101F200000236360524B1B682360FFF775FE514B23
:101F30005148D96C1A6D5B6D00940BF0EDFCFFF706
:101F40006BFE41F2883006F0AFF8FEF795FA4B4988
:101F5000FFF77EFE054668BB49480BF0DDFC02F04A
:101F6000F1FEFEF789FA29462A4600F2352004F0F0
:101F700003FD444B444A00280CBF104618460BF0A2
:101F80003FFDFEF779FA3D49FFF762FE90B93F4801
:101F90000BF036FD02F058FE01463D480BF0BCFC4C
:101FA00002F042FE054602F04FFE00FB05F1394803
:101FB0000BF0B2FC384E394F3378BFF35B8F13F020
:101FC000010516D1304608F030FF90B14FF40E7085
:101FD000FEF750F9012380F83432312380F835328E
:101FE0003A2380F8375280F836323860304608F0AD
:101FF00028FF2B4938682B4DFFF72AFE1821164879
:10200000FFF710FEFFF708FE2B684BB90820FEF71C
:1020100031F90646FEF7A8FF3823306033712E6091
:10202000286801F0B2FD064610B91F480BF0E8FC25
:10203000FFF776FE01F0A4FE0546C8BB1B480BF077
:10204000DFFC2E4634E000BF00C0092020C009207C
:1020500000C00240F0FCFCFF00000340008008408C
:10206000533C0200843C020000247449A93C020055
:102070004440024000400240C13C0200393D0200A1
:10208000413D0200473C0200423C02007E3D02000E
:102090009D3D0200AC3D020028C307202CC3072051
:1020A000AE33020058C30720C73D0200E23D0200E4
:1020B000FFF716FE01F0ECFD054618B96D480BF070
:1020C0009FFC2E466C4D2B681BB90120FEF7D2F801
:1020D0002860286801F0AAFDFFF736FE01F03CFEFB
:1020E000FFF710FE01F00DFEFFF73AFE01F039FE9A
:1020F000FFF708FE002101F007FE002E40F081806E
:10210000FFF78AFDFFF7ECFD2D2101F0A9FDFFF798
:10211000E7FD2D2101F0B0FDFFF7F4FDFF2101F0F7
:10212000F3FD1022002120460AF06AFA00230F2254
:102130002146524801F0D8FE80B9204609F0DFFF61
:10214000C5B2284600F03EFE4D4A4E4B29460028B7
:1021500018BF1346494A4C480BF0DEFBFFF7F4FD6D
:1021600001F0FCFD054600200CF0D2FE28440BF0E7
:102170004FFC4FF40072002120460AF041FA20463D
:1021800008F0D2FB214641480BF0C6FBFFF744FDA7
:102190008022002120460AF033FA204602F030FD6A
:1021A0002278FF2A3BD0214639480BF0B5FB4FF28D
:1021B00008031D684FF20C031C684FF210031E68E1
:1021C0004FF470431A684FF20403AD0A1968A40A69
:1021D00030480BF0A1FB2A4621462F480BF09CFB10
:1021E00031462E480BF098FBFFF716FD012005F055
:1021F00029F92B480BF004FCFFF70EFD0DF5057DCA
:10220000F0BDFFF76DFD0546FFF78AFD01F0E2FD29
:1022100009F0C6FDC1B2284601F056FD81E7FFF77F
:102220009FFD01F0A1FD09281FD11E480BF0E8FB1E
:1022300021461D480BF0FCFC21461C480BF06CFBB2
:102240001B480BF0DDFB002303A91A4803930BF096
:10225000EFFC9DF80C30592B03D1204602F0AEFC68
:10226000A5E715480BF0CCFBA1E714480BF0C8FB21
:102270001348F7E7FC3D020054C30720153E020057
:102280004D3C0200CC3902001B3E02006C4E0200A5
:102290004F3E02006C3F0200983F0200C53F020023
:1022A000E23F02006B3E02008D3E0200923E0200C1
:1022B000AD3E0200F03E0200F43E02000C3F020080
:1022C0003A3F020010B5044C23681BB90120FDF70A
:1022D000D1FF2060206810BD54C307200120704743
:1022E0000120704738B5044600250F4B0360636D2D
:1022F000E06DAB4205D950F82500FDF7BDFF013573
:10230000F5E708B1FDF7BAFF0025A36B206CAB42DF
:1023100005D950F82500FDF7AFFF0135F5E708B105
:10232000FDF7ACFF204638BD0847020010B5044653
:10233000FFF7D8FF2046FDF79FFF204610BD2DE98F
:10234000F04104460E46C06889000BF0C3FB4FF015
:102350000008A568E060AF00AE420DD90C20FDF783
:1023600089FFE368C0F80080C0F8048080F8088026
:102370000135D8510437EFE76660BDE8F081FFFF13
:10238000F7B50025044604260B464FF4805200950D
:10239000244905F0DBFB244B66632360A563E563FA
:1023A0002564022104F13400FFF7C9FF2665656545
:1023B000A565E565284660210BF08CFBA56DE06501
:1023C000AE00172D0CD81020FDF754FF0746102241
:1023D00000210AF015F9E36D01359F510436F0E74D
:1023E00018236365012384F8703000230022A4F8C9
:1023F0007430A4F87630A367002700230B4EC4E99D
:102400002023C4E9226708F079FA4FF47A72002396
:1024100009F0E6FC80197941C4E92001204603B0A7
:10242000F0BD00BFD946020008470200C0D4010039
:102430002DE9F0410F7A14464D680E683FB3082A23
:1024400019D1284605F0CEFB002812DD13494FF0C4
:10245000FF32304606F042FB0121284605F0C1FC60
:10246000336821463046BDE8F0415B684FF0FF32EB
:1024700018470724F4E70A2AF2D00D2AF0D02146A3
:10248000284605F0CFFD002FEAD1BDE8F0810A2AE9
:10249000FBD00D2AF3D1BDE8F08100BFB8400200A7
:1024A000F8B5044614200F461546FDF7E3FE8021DB
:1024B000064605F066FDA16BE36B8B4206D3636BAA
:1024C000C91803D204F13400FFF739FFE36B226C23
:1024D000591C52F82330E1631F605E601D72F8BD25
:1024E0002DE9FF47CF6B06460D4601AC77B94FF497
:1024F0007A7007F09DFC01976760A76094E8070079
:1025000086E80700304604B0BDE8F0870B6C0DF19B
:1025100010081B6893E80700002384E8070008F808
:102520000D3D07F043FB00278146EB6B9F425CD2D9
:102530002B6C4FEA870A53F827301868037C002B6E
:1025400051D0036800221B684146984700284AD0B2
:10255000EB6B9F4244D22B6C53F80A3093E8070090
:1025600084E807009DF8032021462846FFF760FF16
:1025700008F0C4F94FF47A72002309F031FCD5E970
:10258000222380185941C5E92001029805F02AFB51
:102590000746029805F029FB01388742AEDAD5E9F3
:1025A0002223134329D008F0A9F94FF47A720023AB
:1025B00009F016FCD5E92023994208BF90421CD3AC
:1025C00008F09CF94FF47A72002309F009FCD5E970
:1025D0002223801859410023C5E9200101938DE78A
:1025E00005F14403BAE701379FE707F0DFFA8145B9
:1025F000CBD1022007F01CFCC7E79DF803300A2B63
:102600008FD17BE72DE9FF41054625480BF084F982
:10261000294601A8FFF764FF019C34B921480BF05B
:10262000EFF9012004B0BDE8F081029E304605F0CC
:10263000D9FA0028F5DD08F061F94FF0030805F13B
:10264000500E074620B3B5F8743022460133A5F882
:1026500074303146704604F003FD042300258DF8E4
:1026600000808DF801808DF802308DF803302368EA
:102670001DF805105B684FF0FF3220460135984782
:10268000042DF4D108F03AF9C11B07480BF044F9C6
:10269000304605F0ACFA236820469B689847C0E7AF
:1026A000BB400200DC360200C140020038B5064CD7
:1026B000236833B92C20FDF7DDFD054606F084F9CB
:1026C0002560206838BD00BF24C3072010B504462C
:1026D000FFF7ECFF03682146BDE810405B684FF050
:1026E000FF321847002313B502AC04F8013DFFF791
:1026F000DDFF03684FF0FF321B68214698479DF8C5
:10270000070002B010BDFFFF2DE9F04100258AB09F
:1027100000F150040646009520465B4B5B4A5C493D
:1027200004F0BAFB009520465A4B5B4A5B4904F023
:10273000B3FB009520465A4B5A4A5B4904F0ACFB68
:1027400000952046594B5A4A5A4904F0A5FB00957A
:102750002046594B594A5A4904F09EFB00952046A1
:10276000584B594A594904F097FB00952046584B5D
:10277000584A594904F090FB00952046574B584A57
:10278000584904F089FB00952046574B574A584951
:1027900004F082FB00952046564B574A574904F0F7
:1027A0007BFB00952046564B564A574904F074FB74
:1027B00000952046554B564A564904F06DFB00954E
:1027C0002046554B554A564904F066FB0095204675
:1027D000544B554A554904F05FFB00952046544B35
:1027E000544A554904F058FB00952046534B544A2F
:1027F000544904F051FB00952046534B534A544929
:1028000004F04AFB00952046524B534A534904F0CA
:1028100043FB00952046524B524A534904F03CFB7F
:102820000095524B524A5349204604F035FBFFF7BE
:102830003DFF4FF4807320224FF41641054606F009
:10284000A3F8012780462F744B48FDF779FD4B48CC
:10285000FDF770FD3A4629463046FFF721FE082273
:1028600003A905A805F098F905A8454905F005FC58
:102870002A4605A9204604F0F3FB05A805F0A0F9B7
:1028800040460AB0BDE8F081D7400200194102007D
:10289000110501000E4102001E410200F905010070
:1028A0002641020034410200890F01003B41020031
:1028B0007C4102001D06010081410200DD41020051
:1028C000F9080100E14102006F42020079080100AD
:1028D000234202006E420200090D01007242020012
:1028E000A0420200F9090100A3420200C84202000E
:1028F0007D0B0100CE420200FB420200F50B0100FD
:10290000FE42020089580200510C010023430200DC
:1029100046430200B90B0100494302001C44020077
:10292000311101002044020063440200450E010001
:102930006B4402007E440200010F01008544020046
:1029400084450200E106010088450200B04502000E
:10295000310F0100B6450200A03C02004D170100F6
:10296000E0450200D4460200791301009D460200B2
:10297000F1330200D1120100E5260100CD2601004D
:10298000FE3802000120704701207047704708B5EB
:1029900001F0BAF8012008BD10B50446FDF76CFC43
:1029A000204610BD37B59020FDF764FC0446032196
:1029B000FFF7E6FC204605F099F83420FDF75AFCB5
:1029C000002405464FF4007208490094042305F0E2
:1029D000BDF8074B28462B6005F088F820462146B5
:1029E00005F092F84FF0FF3003B030BDA03C02007C
:1029F00044470200242310B54FF6FF7403FB010186
:102A0000884200D110BD43782BB1038C1344A342FC
:102A100028BF234603842430F2E7FFFF002337B5A5
:102A200002A840F8043D0C4B04215B68984705461A
:102A30000A4B019A1C680421141B1A60084822469C
:102A4000FFF7D8FF224602210648FFF7D3FF281CD4
:102A500018BF012003B030BD5CC307208CC4072021
:102A600072C3072026C4072008B50B4B19780378DA
:102A70008B420A4B0BBF1A889A880132013214BF6D
:102A80009A801A80064B8170DB68202198470030BD
:102A900018BF012008BD00BF00C0072002C40720E6
:102AA0005CC307200A4B02781B789A42094B0BBF84
:102AB000DA881A89013201320CBFDA801A8103796F
:102AC000C3F3C202073262F3C5030371FFF7CCBF41
:102AD00000C0072002C40720002210B5064B13F8DF
:102AE00022409100844201D1581810BD0132042ABD
:102AF000F5D1002010BD00BF7BC4072070B1C378A2
:102B00000133DBB2FF2BC37008D100230448C11886
:102B1000CA7804335208102BCA70F8D1704700BF2E
:102B20007BC407202422034602FB0101024630B584
:102B300091420FD1044600259A4211D01979C1F370
:102B4000C200198C41EA0041A94284BF1C460D46CF
:102B50002433F1E71446243212F8235C002DE7D128
:102B6000204630BD38B50446C90001F10805FFF71D
:102B700055FF1C4B22781B789A4224D102211A4817
:102B8000FFF7D0FF0023024680F8203080F8213084
:102B9000234690F8231080F8225021F07F01C5F3DE
:102BA00006250D4380F8235004F1200153F8044B0F
:102BB0008B4242F8044BF9D10C4A0379127862F344
:102BC000C503037138BD04210948FFF7ABFFE37863
:102BD000002BD7D190F82330042543F0800380F8F0
:102BE0002330CFE700C0072026C4072008C00720F5
:102BF00072C3072008B5FFF76FFF0346D8B9FFF788
:102C00006BFF0346B8B90D4AD378D179D07A8B429D
:102C100096BF1946131D1346814294BF0846084BC0
:102C2000D17B084A814238BF1346002206491A6008
:102C3000CA7A0132CA72184608BD00BF7BC4072099
:102C400083C4072087C4072002C407202DE9F0476A
:102C50004FF0240805460C46002708FB0218DFF851
:102C60005C91DFF85CA1A04501D1BDE8F08794F943
:102C70002330002B29DACDB12B786278934209D129
:102C800068782178884205D124220021204609F065
:102C9000B7FC69E0E97849B16978914206D12278B8
:102CA0009A4203D1AA79A3799A42EDD094F82320CD
:102CB00094F82230218C02F07F0243EA02239942E9
:102CC00052DB2046FFF7D0FEDEE76378002B4BD0C7
:102CD000002D32D02A7902F0C002C02A2BD12278EE
:102CE00069788A4202D128789842CDD0E678A878CF
:102CF000864208D1994206D129788A4203D1A17926
:102D0000AA799142C0D0A978E278914215D16A7827
:102D10009A4212D121782A7891420ED1A179AA79CA
:102D200091420AD1237984F8207067F3C50384F8AF
:102D30002170237118E0002AE5D194F8231094F84B
:102D40002220208C01F07F0142EA012290420BDB1D
:102D5000227984F82070C2F3C201CEB284F82170C7
:102D600026B12046FFF79EFE24347CE702F0C00225
:102D7000C02A20D0207899F8002090421BD1E27818
:102D8000934218D0BAB103226379E17062F307135A
:102D900063712046FFF786FE23799AF8002062F3DC
:102DA000C50323716078FFF797FE00B10760002E1E
:102DB0007FF46AAFD8E70126F4E700BF00C0072020
:102DC00008C00720431EDBB2FD2B9DBF024B1870CD
:102DD00001200020704700BF00C00720014B187879
:102DE000704700BF00C0072007289CBF014B187028
:102DF000704700BF08C007202DE9F74304469146FD
:102E00001E469DF828500F46002965D0344B93F894
:102E10000080414560D00F2E5ED800285ED0202271
:102E2000002109F0EDFBFF2F08BF4FF0000903223E
:102E30002379677069F3871362F30203294A84F8E0
:102E40000080127884F8028062F3C503264A237159
:102E500013780133DBB21370A3710BAB0193C5B9C7
:102E600001250123DFF88480384688F80030FFF719
:102E700033FE0746FFF742FE002388F800306379EF
:102E80001FBB66F307136371E770284603B0BDE804
:102E9000F08304F10809019AE0791346526853F867
:102EA000081B00EB02085FFA88F8013DB8F1180F23
:102EB0000193EDB207D8484409F07DFB84F8078000
:102EC000002DE8D1CCE70025CBE7BA7862F30713F1
:102ED00063717B78E370D8E70025D6E70546D4E731
:102EE00000C0072008C007208BC4072071C307203B
:102EF000012270B5134E0446327020B9002500231C
:102F00002846337070BDFFF7AFFD05460028F5D0A9
:102F1000237903F0C003402B10D0A3F180014A4273
:102F20004A41C02B0BD1E3784BB16178994206D06E
:102F3000617920460909FFF715FEE0E70246002AFD
:102F4000F6D1DCE771C3072082B02DE9F04391464A
:102F5000421ED2B28DB0FD2A05460E4615939DF84D
:102F6000688005D900200DB0BDE8F04302B070477D
:102F7000002BF7D0179F002FF4D0199B002BF1D016
:102F8000189B002BEED0169B002BEBD00024482280
:102F90000021234809F034FB90220021214809F048
:102FA0002FFB10220021204809F02AFB1F4B1C6038
:102FB0005C609C601E4B1C605C609C601D4B1D70C7
:102FC0001D4B1E4D1E7015AE0FCE0FC53368182257
:102FD00021461B482B6009F013FB4946172218486D
:102FE0000BF055F821462046B8470028BAD0B8F172
:102FF000000F02D1FFF712FDB5E706230293114B34
:10300000224601930123FF21009304A8FFF7F4FE59
:103010000028A7D004A8FFF76BFF0028A2D0E9E79B
:1030200026C4072072C307207BC407206EC4072074
:1030300002C4072000C007207AC407205CC3072011
:103040000EC407205C47020030B5182B8DB007D89E
:103050001D1CB2FA82F418BF01256409AC4201D1EB
:1030600000200EE00293019200950A469DF8403040
:10307000014604A8FFF7C0FE0028F1D004A8FFF71E
:1030800037FF0DB030BD13B5537914781B09009389
:1030900002460B4620460321FFF7D6FF02B010BDC3
:1030A0000023194630B5084A12F823509C002DB170
:1030B000884201D1101930BD0131C9B20133042B4E
:1030C000F2D1002030BD00BF7BC40720002318468A
:1030D000044A12F8231009B10130C0B20133042BA5
:1030E000F7D170477BC407202DE9F04788B0202234
:1030F0000021684609F084FAA34B1B7803F0FF0413
:103100002BBBA24F20213B696846984708B9002491
:1031100011E09F4D6B8801336B80FFF7D7FF9DF85F
:103120000420A87202F00703032B13D0994A1378E6
:1031300043F001031370FFF771FC04229649204607
:10314000FFF784FD022295492046FFF77FFD08B076
:10315000BDE8F087924B9DF802E01E78B64504D199
:103160008C4A137843F00203E4E78E4D2146A846CB
:10317000C2F3C2029DF800009DF806C05FFA82F912
:1031800001EB410313F805A0824523D12B4493F8AA
:1031900001A0E2451ED19D789A70B5EB090518BFD4
:1031A00001254FF001099DF80200FFF723FD9DF86E
:1031B00002200270427000228270FFF79FFCB9F17A
:1031C000000F01D0002DA2D09DF80030B34233D1C2
:1031D0006C46B0E701310429D2D173490B689A706B
:1031E000724A1870934283F801C006D1C1F800807A
:1031F000864505D10025A946D5E703330B60F7E7DF
:103200008642F7D0FFF7F6FC0546FFF777FC2B78F0
:1032100033B19DF80530AA7803F00F039342E9DC3F
:103220009DF800302B709DF802306B709DF80530D2
:10323000C3F30303AB70DDE79DF80180B8F1FF0F26
:103240001BD13B6820216846984720B9514A137822
:1032500043F0040313709DF8053003F00F02511C76
:1032600061F303038DF80530C3F303139A42BFF6ED
:103270004EAF6846FFF7F8FB49E746452ED1B9F156
:10328000000F0CD19DF807304BB13B6820216846F8
:10329000984720B93F4A137843F0040313709DF810
:1032A000043003F0C003402B12D19DF807306A466A
:1032B00023B918213E48FFF7E6FE89E70C21344880
:1032C000FFF7E1FE002883D100216A460846F2E7B5
:1032D0009DF80330002B7FF47BAFF5E7354B1F786B
:1032E000002F3FF414AF9DF8055005F00F094FEA89
:1032F000151AD145BFF60BAF4046FFF7EDFB9DF821
:10330000033009F1010969F303059E428DF8055068
:1033100024D19DF8043003F0C003402B03D0A3F167
:1033200080025742574150B3C02B447820D1A0456A
:1033300012D0003418BF01243C4304F00104D0B182
:1033400043788DF8033085786846FFF78DFB002CB5
:103350003FF43EAF294607E00024EDE7002B7FF461
:1033600037AF0028ECD151466846FFF7FBFB2FE74B
:103370003C46E5E73C4600258DF80350E4E7C02BCA
:10338000F8D10446D8E700BF71C307205CC307200B
:1033900002C4072070C3072072C3072026C4072079
:1033A00000C007206EC4072004C0072077C4072090
:1033B0000EC407207AC4072000231846094AD118F2
:1033C000497809B10130C0B22433902BF7D1064BB4
:1033D0005A780AB10130C0B293F825300BB10130F0
:1033E000C0B2704772C3072026C4072008B5FFF794
:1033F00073FB064B28B18278187802FB0000C000EE
:1034000008BD18201B78584308BD00BF08C007201E
:1034100003490B6803604B6843608B6883607047A7
:1034200002C4072030B54FF48035364CE561364C88
:10343000A0602046C468E406FCD48068C0B263B9CA
:103440000B46314C5D1A954209DA13F8015BA56011
:10345000E568ED06FCD4A568F4E72B4B22B94FF4E0
:103460008032284B9A6130BD072A0C7829DD9C6098
:103470004C78083A9C608C789C60CC789C600C7985
:103480009C604C799C608C799C60CD7901F108043A
:103490009D609D696D07FCD59D680D709D684D70A0
:1034A0009D688D709D68CD70DD68ED06FCD49D68CB
:1034B0000D719D684D719D688D719D68CD7121461E
:1034C000CCE7032A14DD9C604C78043A9C608C782D
:1034D0009C60CD780C1D9D60DD68ED06FCD49D6878
:1034E0000D709D684D709D688D709D68CD70E6E78C
:1034F0004D1C9C60013ADC68E406FCD49C680C70AE
:103500002946ABE700C0092000800840002307B52A
:1035100002A901F8013D012300F01F001A46FFF740
:1035200081FF9DF8070003B05DF804FB13B502AC02
:1035300004F8011D00F01F0000230122214640F085
:103540002000FFF76FFF02B010BD08B51720FFF78E
:10355000DDFFC0F3001008BD70210720FFF7E6BFB4
:103560000A4600230146A020FFF75CBF08B50020F3
:10357000FFF7CCFFBDE8084000F0FE010020FFF798
:10358000D5BFFFFF4FF08072014BDA61704700BF7B
:1035900020C0092008B50020FFF7B8FF40F0010166
:1035A000C9B20020FFF7C2FF4FF08072014B9A6151
:1035B00008BD00BF20C0092020210720FFF7B6BFAB
:1035C0000023E1201A461946FFF72CBF37B5044601
:1035D0000D46FFF7F5FF20462946FFF7C1FF4FF0E4
:1035E00080720C4CA2610022ADF80620BDF80630B6
:1035F00001339BB2ADF8063033B94FF08073E3610D
:10360000FFF7DEFF03B030BDFFF79FFF0028EDD0CE
:10361000F3E700BF20C0092008B51720FFF776FFA9
:10362000C04300F0010008BD40210720FFF77EBF26
:1036300008B50A46012301466120FFF7F3FEC0F3F7
:10364000420008BD0023E2201A461946FFF7EABEF1
:1036500070B5064600200D461446FFF757FF66B1C9
:1036600000F0BF006DB100F0DF016CB101F0EF01BF
:103670000020BDE87040FFF759BF40F04000C0B2E5
:10368000F0E740F02001F0E741F01001F0E710B55D
:1036900004460020FFF73AFF34B900F0F70100209C
:1036A000BDE81040FFF742BF012C04D100F0FB0140
:1036B00041F00801F3E7022C14BF40F0080140F08C
:1036C0000C01C9B2EBE708B50020FFF71FFFBDE80A
:1036D000084040F00201C9B20020FFF727BF08B53B
:1036E0000020FFF713FFBDE8084000F0FD010020B7
:1036F000FFF71CBF40F6DD1398420BD840F662136B
:10370000B0F5166F38BF1846A0F51661C9B205208E
:10371000FFF70CBF1846F7E710B504460620FFF781
:10372000F5FEFA2C00F0D70106D141F02001062069
:10373000BDE81040FFF7FABEB4F5FA6F08BF41F0DC
:103740000801F4E710B504460620FFF7DFFE032C5E
:1037500028BF032420F0060141EA4401C9B2062033
:10376000BDE81040FFF7E2BEB0F57A6F28BF4FF416
:103770007A60FA2838BFFA20FA23B0FBF3F30F2956
:1037800028BF0F21013BDBB241EA0311C9B204207B
:10379000FFF7CCBE1130C0B2162804D8202928BFAC
:1037A0002021FFF7C3BE7047032806D0042814BFAA
:1037B000032102210320FFF7B9BE0121FAE70A46DF
:1037C000002301463020FFF72DBE0A4600230146A4
:1037D0002A20FFF727BEFFFF73B504460E461546A5
:1037E000FFF730FFFFF7ECFE4FF080722A4BDA61F3
:1037F000FFF775FF002201201146FFF729FFFFF7B1
:10380000ABFE0220FFF743FF3046FFF773FF284669
:10381000FFF782FF0320FFF795FF03210220FFF748
:1038200085FE00210120FFF781FE03214FF4FA708D
:10383000FFF79AFF21460020FFF7ACFF002112207E
:10384000FFF774FE00211320FFF770FE0021142003
:10385000FFF76CFE00211520FFF768FE00211620FF
:10386000FFF764FE0D4B18681B79009005208DF85A
:103870000430FFF799FF68460521FFF7A0FF0521F7
:103880006846FFF7A2FFFFF71EFF4FF4FA6004F04F
:10389000F6FB02B070BD00BF20C0092063470200E4
:1038A000002307B5084802AA42F8043D19460068FB
:1038B00005F0CFFE019B1BB14FF08052034B1A6005
:1038C00003B05DF804FB00BF94C4072004ED00E0E2
:1038D00070B5174E326822B92021032005F0EFFDA4
:1038E0003060144D2A6822B92021012005F0E7FD3F
:1038F0002860114C216821B90322012005F0DFFD69
:1039000020604FF4FA6240F6C3112020FFF764FFF5
:10391000FFF740FE1620094A012104F06FFD3068D0
:1039200028B1286818B12068003018BF012070BD88
:1039300098C4072090C4072094C40720A138010030
:10394000037970B503F0C003C02B0CBF0E4B0F4BB7
:1039500001461D68002388B006461A46284605F031
:10396000DEFD044660B9034602466946284605F076
:10397000AEFE234622463146284605F0D0FD0446D9
:10398000204608B070BD00BF90C4072098C407202F
:1039900038B504460D46FFF721FA237883420AD052
:1039A000E37843B90AF05CF8BD2300F0030000FBA4
:1039B000033004F064FBFFF7E5FDFFF7D7FDA9B284
:1039C0002046FFF703FEFFF7F7FDFFF7E3FD06F0E4
:1039D000FDFB022806D1002303481A461946006859
:1039E00005F037FE012038BD94C4072038B50446E1
:1039F0000D46FFF711FE48B1A9B22046FFF718FEA9
:103A0000FFF70AFE08B9FFF70FFE012038BD2DE9C8
:103A1000704305460E46144606F0D8FB022809D12D
:103A2000224600233146284605F051FEC4B2204606
:103A3000BDE8708306F062FF4FF47A72002308F04D
:103A4000CFF910EB040841F10009002331461A4672
:103A5000284605F03CFEC4B2002CE8D106F04EFF2B
:103A60004FF47A72002308F0BBF9894508BF8045FE
:103A7000EBD2DCE7042938B505460DD1041C18BF8C
:103A8000012406F03BFF2CB14FF47A72002308F0BA
:103A9000A7F92860204638BD0024F2E700B50C4B9A
:103AA0008DB009930B4B0C4A0B930C4B0A930CAB48
:103AB00043F8102D002204920FCB8DE80F00084B25
:103AC000084A01216A20FFF73FFA0DB05DF804FBB8
:103AD000D1380100ED390100753A0100913901003A
:103AE0004139010068470200024B0A460146186846
:103AF000FFF78DBF98C40720024B0A46014618689D
:103B0000FFF785BF90C4072008B506F05FFB0F4B99
:103B100002285B6912D15A020CD5FFF74DFC002335
:103B200000280B4814BF01224FF0FF3219460068ED
:103B300005F0CDFDBDE80840FFF7D6BA5B02F9D528
:103B4000FFF73AFC0028F5D108BD00BF00C00920EE
:103B500094C4072013460A460179006805F0E1B8CD
:103B60001FB5002204AB23F8042D02220479009231
:103B700000680A46214605F0BFF89DF80C009DF844
:103B80000D3043EA002004B010BD10B504461922E0
:103B90002A21FFF7DFFF0D222179206805F0B0F818
:103BA000A0F12A035842584110BDFFFF044A138870
:103BB0001F2BDFBF581C1080024A42F823107047A9
:103BC0001CC507209CC40720F0B5154E3388012B77
:103BD00023DD144A00201546013B984208DA52F8CA
:103BE000041F013052F8044C091B42F8041CF4E78E
:103BF00000214FF0010E0C46686800EB50008AB2BD
:103C0000934208DD55F822700131B8423CBF0EFAEC
:103C100002F21443F3E7044B1C6000233380F0BD31
:103C20001CC507209CC4072020C5072008B501211A
:103C3000022006F0FBFD084B01209A6A22F00702E1
:103C40009A629A6A42F006029A62044AD36843F082
:103C50003003D36008BD00BF0080004000C00240B8
:103C600008B5044B417101F07F015A5C0321FFF755
:103C700071FF08BD6D47020008B5044B817101F06A
:103C80007F015A5C0221FFF765FF08BD6D47020006
:103C900038B504460179006805F04EF8054688B14C
:103CA000002206212046FFF755FF0022072120466B
:103CB000FFF750FF2E212046FFF7D2FF2E2120468E
:103CC000FFF7DAFF284638BD70B56424B1FBF4F382
:103CD00003FB14140A21E4B2B4FBF1F501FB154116
:103CE0003031C9B20646FFF7C7FF092C88BF05F17E
:103CF00030013046BDE8704094BF2021C9B2FFF7C3
:103D0000AFBF01207047FFFF38B50C46054606F0EF
:103D100093FB012204F00F032B700E4B14F0010FE4
:103D200014BFDA619A61022214F0020F14BFDA6143
:103D30009A61102214F0040F14BFDA619A614FF4F3
:103D4000807214F0080F14BFDA619A61BDE8384040
:103D500006F084BB20C0092001207047022004F037
:103D600021BA01207047FFFF044B5B69180B00F07C
:103D70000C00C3F341231843704700BF20C0092043
:103D800010B5044681220121FFF7E4FE01222179CA
:103D9000206804F0B5FF10F0600F14BF0120002070
:103DA00010BD38B500210446FFF7DAFE812205B2C6
:103DB00001212046FFF7CEFE102095FBF0F007F022
:103DC00025FE4FF0765107F075FEA16807F06AFDF9
:103DD00038BDFFFF08B5FFF7E4FF054907F06AFEAD
:103DE000044907F01BFF4FF0844107F05BFD08BD5D
:103DF000000010410000A0402DE9F04FADF2546DDD
:103E00000C4690460146012282A8994602F024F809
:103E1000824650B90A2221460DF22C4002F01CF8CD
:103E2000824638B182A802F081FA50460DF2546DF4
:103E3000BDE8F08F6C4605460646074620600190B7
:103E400006F05CFD4FF47A72002307F0C9FF2346A9
:103E500083464FF4007202A982A802F094F88246C9
:103E600008B922689AB9B8F1000F01D0C8F80070FB
:103E7000B9F1000F01D0C9F80060DDF8783603B160
:103E80001D6082A802F052FA0DF22C40CBE706F03A
:103E900035FD4FF47A72002307F0A2FFB0EB0B0060
:103EA000074406F02BFD4FF47A72002307F098FFC9
:103EB00001AB8346226802A90DF22C4002F01BF9E7
:103EC00082460028CFD1019922689142CBD106F0D9
:103ED00015FD00234FF47A7207F082FF2368B0EBE0
:103EE0000B0006441D44ABE7F0B51D460023ADF5BD
:103EF0000B7D0E4617460146012201A8009301F0F2
:103F0000ABFF044670B91DB1294601A802F020FAA2
:103F10006B463A46314601A802F035F8044601A83E
:103F200002F004FA20460DF50B7DF0BDF0B51D46FC
:103F30000023ADF50B7D0E46174601460A2201A867
:103F4000009301F089FF044670B91DB1294601A80C
:103F500002F0FEF96B463A46314601A802F0CBF872
:103F6000044601A802F0E2F920460DF50B7DF0BDF4
:103F7000F0B51D460023ADF50B7D0E4617460146F4
:103F8000122201A8009301F067FF044670B98DB1B9
:103F9000294601A802F0DCF96B463A46314601A8F1
:103FA00002F0A9F8044601A802F0C0F920460DF578
:103FB0000B7DF0BD0499ECE77F2810B516D931B11F
:103FC000FF2812D80A4B803833F8100010BD084A79
:103FD00032F811408BB2844203D001318029F7D1ED
:103FE0000B4603F18000C0B210BD002010BD00BF21
:103FF000EE4702000023064931F8132022B1824225
:1040000003D1044A32F8130070470133F4E700BFCC
:10401000EE480200CE4A020010B501200C4605F021
:10402000F2FA2060003018BF012010BD0120704757
:1040300010B5044606F0CAF802280AD100234FF052
:10404000FF321946204605F042FB431E58425841B4
:1040500010BD012010BD10B5044606F0B7F80228C7
:1040600007D100232046BDE810401A46194605F046
:1040700056BA10BD10B5044604F048FC1CB1012C22
:1040800008D0042402E000F0E3FC044604F056FCEF
:10409000204610BD00F074F9F7E728B1012801D0DF
:1040A0000420704700F022BA7047F8B507460C4666
:1040B00015461E4604F02AFC1FB1012F0BD0042424
:1040C00005E032462946204600F00EFD044604F085
:1040D00035FC2046F8BD32462946204600F00EFA4F
:1040E000F4E7F8B507460C4615461E4604F00EFCEC
:1040F0001FB1012F0BD0042405E03246294620468B
:1041000000F01AFD044604F019FC2046F8BD3246C2
:104110002946204600F03EFAF4E770B506460C4604
:10412000154604F0F3FB1EB1012E0AD0042404E06E
:104130002946204600F026FD044604F0FFFB2046F9
:1041400070BD2946204600F07FFAF5E708B506F075
:10415000D5FB4FF47A72002307F042FE08BDFFFF43
:1041600010B5044606F044FD074BB0FBF3F0022304
:10417000B0FBF3F2944202D3044A136110BDB3F5CD
:10418000807FF9D00233F3E740420F000000034084
:10419000034B9860DA68D206FCD49868C0B27047C6
:1041A0000000034070B5FFF7D1FF00F5FA74FF205F
:1041B000FFF7EEFF0025FF20FFF7EAFFFF28064686
:1041C00005D0FFF7C3FFA94208BFA042F3D3304692
:1041D00070BDFFFF38B54FF00075054CE561FFF786
:1041E000E1FF044AA561137843F00103137038BD61
:1041F00020C0092009C007202DE9704306460D465E
:10420000FFF7A4FF643080464FF00009FF20FFF75E
:10421000BFFFFF2808D1FFF799FF494508BF404578
:10422000F4D30020BDE87083FE28FAD1102D0ED9FA
:1042300000224FF40071304604F008FBFF20FFF726
:10424000A7FFFF20FFF7A4FF0120BDE87083341D06
:104250000435FF20FFF79CFF04F8040CFF20FFF754
:1042600097FF04F8030CFF20FFF792FF04F8020CFD
:10427000FF20FFF78DFF043404F8050C2B1BDE42F2
:10428000E7D1DBE770B506460D46FFF78BFFFF2849
:10429000044619D12846FFF77BFFFD2D16D0224694
:1042A0004FF40071304604F0D1FA2046FFF770FF5A
:1042B0002046FFF76DFF2046FFF76AFF00F01F0062
:1042C000431F5842584170BD002070BD012070BD91
:1042D000020638B504460D4607D500217720FFF7C2
:1042E000F7FF012836D804F07F044FF000721A4B14
:1042F0009A61DA61FFF756FFFF282AD12046FFF7BF
:1043000047FF280EFFF744FFC5F30740FFF740FFC4
:10431000C5F30720FFF73CFFE8B2FFF739FF402C59
:1043200015D0482C14BF01208720FFF731FF4C2CFB
:1043300002D1FF20FFF72CFF0A21FF20FFF728FF03
:10434000030607D5013911F0FF01F6D138BD9520DC
:10435000EBE7FF2038BD00BF20C00920064A07490F
:1043600013784969DBB2490154BF03F0FD0343F000
:1043700003031370704700BF09C0072020C0092045
:104380002DE9F743FFF7EAFF554B1A781E4612F066
:10439000020F04D01878C0B203B0BDE8F08301204A
:1043A000FFF7DEFE0A24FF20013CFFF7F1FE14F0C8
:1043B000FF04F8D14FF000734A4F2146FB614020C3
:1043C000FFF786FF0128804613D04FF00008464BC8
:1043D00083F800804FF00073BB61B8F1000F7BD011
:1043E0003378182003F0FE033370FFF7B9FE3078FE
:1043F000D1E7FFF7ABFE4FF4D57100F57A75482091
:10440000FFF766FF012840D10DF10408FF20FFF7F8
:10441000BFFE08F804000134042CF7D19DF80630E3
:10442000012BD2D19DF80730AA2BCED12C460025E6
:10443000FFF78CFEA94208BFA0421ED3FFF786FEFD
:10444000A94208BFA042C0D200217A20FFF740FF56
:104450000028BAD10146FF20FFF79AFE08F80100B4
:1044600001310429F7D19DF8043013F0400F14BF37
:104470004FF00C084FF00408A9E74FF08041E92005
:10448000FFF726FF0028D3D1D8E72146E920FFF720
:104490001FFF02282C4636BF4FF0E9094FF04109B3
:1044A0004FF002080025FFF751FEA94208BFA042C5
:1044B0000BD3FFF74BFEA94208BFA04287D34FF4AE
:1044C00000715020FFF704FF81E700214846FFF705
:1044D000FFFE0028E7D1ECE7FFF77CFE87E700BF8F
:1044E00009C0072020C0092024C5072008B5FFF710
:1044F00035FF014B187808BD09C0072070B5144678
:1045000006460846FFF72AFF002C38D01E4B1B78C2
:10451000DA0736D44FF000721C4DEA611C4A12785B
:10452000130758BF4002012C014612D15120FFF75A
:10453000CFFE38B94FF400713046FFF75DFEB0FA98
:1045400080F464094FF00073201CAB6118BF012098
:1045500070BD5220FFF7BCFE0028F3D14FF400716C
:104560003046FFF749FE28B1013C14F0FF0406F580
:104570000076F3D100214C20FFF7AAFEE2E70420E9
:1045800070BD032070BD00BF09C0072020C00920F6
:1045900024C50720F8B5144606460F46FFF7DEFE91
:1045A000002C44D0254B1A78D10742D41B785A07E7
:1045B00041D44FF00072224DEA61224A127813076B
:1045C00058BF7F02012C12D139465820FFF780FED8
:1045D00058BBFE213046FFF755FEB0FA80F464095F
:1045E0004FF00073201CAB6118BF0120F8BD12F022
:1045F000060F03D02146D720FFF76AFE394659201F
:10460000FFF766FE0028EBD1FC213046FFF73AFEAB
:1046100028B1013C14F0FF0406F50076F4D1FD2129
:104620000020FFF72FFE0028DAD10124D8E704206C
:10463000F8BD0320F8BD0220F8BD00BF09C0072067
:1046400020C0092024C507207FB50D46FFF786FE50
:1046500005281AD12B78012B15D005D3022B0BD0AE
:104660000424204604B070BD7B4B5C6914F0806468
:1046700009D1FFF7AFFDF4E7774B5B6983F0806307
:10468000C3F380636B700024EBE7744B1B78DB078C
:1046900000F1E0800E2800F2DB80DFE800F0081770
:1046A000555AD9D9D9D9D9D9A7ABBABDCD004FF070
:1046B0000072694BDA61FFF775FDB0F1FF0418BFB6
:1046C00001244FF00072644B9A61CAE7002149202F
:1046D000FFF7FEFD044608B10124F2E71021684609
:1046E000FFF78AFD0028F7D09DF800309DF80810EC
:1046F0009B09012B9DF8093006D15A1C02EB0122BF
:1047000092B292022A60DCE79DF807209DF80A0029
:10471000920002EB91129DF806100132890201F419
:1047200040610A449DF805105B0001F00F0101EBA8
:10473000D011023103F006030B44DBB292B2093B05
:1047400002FA03F32B60BCE74FF400732B800024C4
:10475000B7E7434E317811F004011CD00021CD2081
:10476000FFF7B6FD0028B7D1FF20FFF711FD10219C
:104770006846FFF741FD0028AED03024FF20FFF748
:1047800007FD601E10F0FF04F8D19DF80A301A09E9
:1047900010239340D6E74920FFF79AFD04460028EE
:1047A0009AD110216846FFF727FD002894D0307871
:1047B0009DF80A3010F002009DF80B100AD05B0043
:1047C0009DF80D2003F07E0303EBD1139209013312
:1047D000013ADEE7CA0002F01802C3F3840302EBD9
:1047E0005112013302FB03332B60B0E71C4B1B78E3
:1047F0002B70ACE700214920FFF76AFD00287FF409
:104800006BAF10212846FFF7F7FCB0FA80F464097B
:1048100057E700214A20EFE700217A20FFF758FDF3
:1048200000287FF459AF291DFF20FFF7B1FC05F8E0
:10483000010B8D42F8D18AE70021CD20FFF748FD1A
:1048400000287FF449AFFF20FFF7A2FC4021D9E701
:10485000042436E7032404E720C0092009C0072008
:1048600024C50720054B1B78253BDBB2032B9ABFE1
:10487000034A52F823000020704700BF2CC50720D0
:10488000B84C02001B4B2DE9F0411D880646B5F5DA
:10489000007F0F46144603D12A46214638460BE0D6
:1048A000B5F5807F0CD12A4621463846B0472A46C6
:1048B00004F5807107F580703346BDE8F041184774
:1048C000B5F5047F04D1510A89024FF40072E5E77F
:1048D000B5F5847F0BD1140A61024FF4807238461B
:1048E000B0474FF4807201346102B818E4E7BDE8C4
:1048F000F08100BF2EC5072010B5294B00294DDDE2
:104900000729027829DD9A60427808399A6082780E
:104910009A60C2789A6002799A6042799A60827944
:104920009A60C47900F108029C609C696407FCD518
:104930009C6804709C6844709C6884709C68C47017
:10494000DC68E406FCD49C6804719C6844719C6833
:1049500084719C68C4711046D0E7032914DD9A6005
:10496000427804399A6082789A60C478021D9C600B
:10497000DC68E406FCD49C6804709C6844709C6805
:1049800084709C68C470E6E7441C9A600139DA6858
:10499000D206FCD49A6802702046AFE710BD00BF73
:1049A0000000034007B50B0C8DF805308DF807109B
:1049B0000B0A04218DF804000DEB01008DF8063080
:1049C000FFF79AFF03B05DF804FBFFFFF7B5032381
:1049D00040250E4C1746E5618DF804300B0C8DF820
:1049E00005308DF807100B0A042106460DEB010077
:1049F0008DF80630FFF780FF00223946304603F07D
:104A000025FFA561A561A56103B0F0BD00C0092027
:104A100040220D4BDA61D7220C4B9A60DA68D2063D
:104A2000FCD40A4A9B68FF2113469160D868C006EF
:104A3000FCD4986810F0800FF7D04022024BC0B22F
:104A40009A619A619A61704700C009200000034092
:104A5000F7B5FFF7DDFF002340271E4C1E4E2380D5
:104A60001E4BF7611A889B780546032101A8ADF813
:104A700004208DF80630FFF73FFF9DF805209DF8D4
:104A800006301F2AB761B761B76115D1A3F12502BE
:104A9000032A11D8124A252B137005F0010011D1F9
:104AA000002814BF4FF480734FF484732380FFF702
:104AB000D9FE0C4B400A18602088B0FA80F04009FB
:104AC00003B0F0BD002814BF4FF400734FF404731B
:104AD000ECE700BF2EC5072000C00920AE4C020045
:104AE0002CC5072028C507202DE9F0418B18174653
:104AF0000F4A013B12680446934212D84D02002629
:104B0000FFF786FFDFF82C802D1BBE4204EB050269
:104B10000ADA21464046FFF7B5FE04F50074013677
:104B2000F3E70120BDE8F0810020BDE8F08100BF7F
:104B300028C50720CD4901008B182DE9F041174603
:104B40000E4A013B1268934211D804460026DFF852
:104B50003080C0EB4125BE4204EB05020ADA214653
:104B60004046FFF78FFE04F500740136F3E701209D
:104B7000BDE8F0810020BDE8F08100BF28C5072016
:104B8000654C010008B5072805D8DFE800F0060AE3
:104B90000F1308080808042008BDFFF739FF00209C
:104BA00008BDFFF75FFE400A0860F8E74FF40073A6
:104BB0000B80F4E701230B60F1E7FFFF70B590B0C5
:104BC00003466A466E4600F1400514461868596867
:104BD000083303C4AB422246F7D14024074D0021DD
:104BE000EC619B20FFF7DEFE21463046FFF784FE96
:104BF000AC61AC61AC6110B070BD00BF00C00920F9
:104C000070B540240646074D00217720EC61FFF780
:104C1000C9FE21463046FFF76FFEAC61AC61AC6166
:104C200070BD00BF00C0092008B5064B198831F0DF
:104C30001F0104D0FFF716FEB0FBF1F008BD0846D7
:104C400008BD00BF2EC50720014B1888704700BF64
:104C50002EC50720024B1878003018BF012070477E
:104C60002EC507204FF0FF332DE9F7430F4691463D
:104C700001938046FFF7CCFEFFF7ECFF0646B8B184
:104C80004025194C194BE5611B880320B3F5847F3F
:104C90000CBF4FF480714FF400713943FFF782FE6F
:104CA00004210DEB0100FFF727FEA561A561A561B9
:104CB00040230D4C39468220E361FFF773FE012249
:104CC0004946404603F0C2FD3EB1019B02A80133B4
:104CD00040F8043D0421FFF70FFE4023A361A361C8
:104CE000A36103B0BDE8F08300C009202EC50720F2
:104CF000124B37B51B88B3F5847F0CBF4FF480711E
:104D00004FF400714FF0FF3341EA40210193FFF768
:104D1000A1FF68B140250A4C0320E561FFF742FE80
:104D200004210DEB0100FFF7E7FDA561A561A56179
:104D30000198431C08BF002003B030BD2EC50720DA
:104D400000C0092037B540250421074B074C1868DF
:104D50000190E5610DEB0100FFF7CEFDA561A561B6
:104D6000A56103B030BD00BFB14C020000C00920F6
:104D70001FB501A803F092FC9DF8093003F00F0065
:104D80009DF8083003F01F031B0443EA40539DF8CD
:104D9000060000F01F0043EAC0239DF8050000F064
:104DA0003F0043EA40139DF80400C0F3440003436E
:104DB000BDF80A00400600F10840184305B05DF850
:104DC00004FB30B504460D1F131B0344032B0AD804
:104DD00022F00303194402F00302013B18440A4481
:104DE000914205D130BD55F8043F44F8043BEBE750
:104DF00011F8013B00F8013FF2E70244904200D174
:104E0000704700F8011BF9E7024600F10B01002092
:104E1000C30143EA500312F8010B03448A4203F032
:104E2000FF00F5D17047036810B5044653B1194629
:104E30000A4611F8010B1F2810D93A28F8D1591C3D
:104E40008A4202D04FF0FF3010BD1B78303BD9B200
:104E50000129F7D801321846226010BD002010BD8C
:104E600003692DE9F04101F109020D4663B3002405
:104E70002E2741694E1E16F8013F0134202B19D010
:104E8000052B48D0092C01D117700132A3F1410E36
:104E9000BEF1190F0CD8082C8CBF4FF0100C4FF03E
:104EA000080C91F80CE01CEA0E0F1CBF2033DBB29B
:104EB000137001320B2CDED1CB7A2B72CB692B60B5
:104EC0000B8BAB80CB8AEB8000241470AE693EB3B1
:104ED000036923B9002400233355BDE8F081EB6951
:104EE000002BF7D04FF6FF73028C9A42F2D0D0F825
:104EF0001C80771E38F814000028ECD00021FFF742
:104F00005BF80028E6D0EB69013B9C42E2D2013419
:104F100007F8010FEEE7092C4FF0E503C8D1B3E71E
:104F2000BDE8F081F8B5056B00F1340704460123B4
:104F30002A4639464078FFF7D4F8A0B9636AE26997
:104F4000EB1A9342207101D30020F8BDE678012EC0
:104F5000FAD9E36939461D442A4601236078FFF7F0
:104F6000C0F8013EF3E70120F8BD03790BB1FFF76C
:104F7000D9BF18467047FFFF70B50446FFF7F5FF2D
:104F8000054680BB2378032B25D16379012B22D1E1
:104F900004F1340601464FF400723046FFF72DFF4E
:104FA0004AF65522A4F832220F4A3146626302F1D2
:104FB000FF5202F500522032C4F81822626960786C
:104FC000C4F81C222269C4F82022226A013222631A
:104FD000FFF787F86571002260781146FFF79DF8AA
:104FE000003018BF012070BD52526141036B70B593
:104FF0008B4205460E4611D0FFF7B7FF044610B1AD
:105000000124204670BD0123324605F13401687841
:10501000FFF74BF80028F3D12E63F2E70024F0E706
:10502000002310B503714FF0FF3303630446FFF70D
:10503000DDFFA0B94AF65523B4F832229A4210D1C6
:10504000D4F86A30084A23F07F4393420AD0D4F858
:10505000860020F07F40801A18BF012010BD032079
:1050600010BD022010BD00BF464154000023F0B522
:10507000036085B0074608461546FFF7D4FE061EB6
:10508000C0F2F1807D4B53F82640002C00F0ED80FB
:10509000E068FEF7CDFF002800F0E9803C6023784F
:1050A0006BB16078FEF7F9FFC10708D4002D00F05E
:1050B000B78010F0040000D00A2005B0F0BD002336
:1050C000F0B223706070FEF7D5FFC20700F1D18007
:1050D0000DB14307F0D400212046FFF7A1FF0128BE
:1050E00040F0AC802146002291F8F6310BB1D1F8A6
:1050F000FA314DF822300132042A01F11001F3D1C6
:1051000000265DF82650002D00F08C8029462046B0
:10511000FFF786FF002840F08680B4F83F30B3F5F3
:10512000007F40F08980B4F84A1001B9A16D94F86D
:105130004420E161531E012BE2707DD894F8416058
:10514000A670002E78D0731E334275D1B4F845E0B6
:105150001EF00F0FA4F808E06ED1B4F8473003B981
:10516000636DB4F84270002F66D04A4307EB1E10FF
:105170001044834260D31B1AB3FBF6F3002B5BD0C1
:1051800040F6F576B3425BD94FF6F576B34294BF5D
:105190000226032602332F442844032EA3612562EE
:1051A0006762E0624ED1BEF1000F45D1226E9B00D6
:1051B000A26203F2FF13B1EB532F3DD34FF0FF3345
:1051C000636123618023032E637122D1B4F86430BC
:1051D000012B1ED1691C2046FFF708FFC8B94AF60B
:1051E0005523B4F8322260719A4212D1626B244B7B
:1051F0009A420ED103F1FF53D4F8182203F500535D
:1052000020339A4201BFD4F81C326361D4F82032B3
:1052100023611C4A2670138801339BB21380E380FC
:1052200000204AE702200136042E7FF46AAF0328EB
:1052300021D000283FF471AF0D203EE70025F6E7AE
:105240000126A7E7BEF1000FF6D0022E17444FEA61
:1052500043021CBFD21803F00103A7620CBF134620
:1052600003EB5203A5E70B2027E70C2025E70F20CF
:1052700023E7032021E701201FE700BF30C50720F7
:105280005252614138C5072010B50446A8B10368E1
:105290009BB11A788AB1D988828891420DD1D86899
:1052A000FEF7C6FE58B123685878FEF7F6FE10F0F8
:1052B000010F14BF0320002010BD092010BD0F20D6
:1052C00010BD50B10F2905D84FF41A4323FA01F14C
:1052D000CB0702D4C068FEF7BEBE704783690239AF
:1052E000023B99423DBF8378C06A01FB0300002066
:1052F00070470129F8B507460C464BD98369994296
:1053000048D20378022B29D0032B34D0012B41D172
:1053100001EB5106416A01EB5621FFF767FE10B120
:105320004FF0FF30F8BD796AC6F3080301363B44FD
:1053300001EB5621384693F83450FFF757FE00280A
:10534000EED1C6F308063E4496F83400E30745EA7A
:1053500000204CBF0009C0F30B00F8BD416A01EB0F
:105360001421FFF743FE0028DAD1660006F4FF7629
:105370003E44B08EF8BD416A01EBD411FFF736FE12
:105380000028CDD1A40004F4FE743C44606B20F0EE
:105390007040F8BD0120F8BD70B5044682680D4626
:1053A000012AE18001D1022070BD036899698A4217
:1053B000F9D2BAB91978032901D1996A99B9198929
:1053C0008D42F0D2986AE2600028ECD0236800EBAE
:1053D0001510343305F00F0503EB451520616561A9
:1053E000002070BD11460A469E783601B54211462E
:1053F000206802D2FFF772FFE5E7FFF77AFF431C50
:10540000024607D00128CED923689B699842CAD2A8
:10541000AD1BEBE7012070BD0129F8B505460C4630
:10542000164660D9836999425DD20378022B3AD03F
:10543000032B45D0012B54D101EB5107416A01EBFD
:105440005721FFF7D3FD18BBC7F3080314F001047D
:105450002B4417BF93F83420F2B202F00F0132014F
:105460001CBF02F0F0020A4383F834200123696A6A
:1054700001372B7101EB57212846FFF7B7FD38B9EB
:10548000C7F308072F4434B1C6F3071687F8346012
:1054900001232B71F8BD97F83430C6F3032623F0AF
:1054A0000F031E43F2E7416A01EB1421FFF79EFD53
:1054B0000028EDD1640004F4FF742C44A686E7E7CD
:1054C000416A01EBD411FFF791FD0028E0D1A4005F
:1054D00004F4FE7434342B5903F070431E432E51F0
:1054E000D6E70220D4E70220F8BDF8B505460F46FE
:1054F00071B90669E6B183699E4228BF0126344628
:10550000AB6901349C4216D3012E13D8002408E065
:10551000FFF7EFFE0128044635D9013003D14FF0E3
:10552000FF342046F8BDAB699C42FAD33E46E6E71D
:105530000126E4E7022421462846FFF7DAFE30B1CF
:10554000411CECD001281ED0B442D9D1DEE76FF067
:10555000704221462846FFF75FFF90B957B96B6943
:105560002C615A1CDDD0013B6B616B7943F0010368
:105570006B71D6E7224639462846FFF74DFF0028D3
:10558000EDD00128CBD00124CBE72DE9F843C68824
:1055900004460136B3B2894613B90420BDE8F88346
:1055A0000369002BF9D016F00F0807D1C168013349
:1055B0000361006859B903899E42EED22368E680F0
:1055C000343303EB481363610020BDE8F883877828
:1055D000013F17EA1617F1D1FFF78BFE01280546A8
:1055E00002D80220BDE8F883421C02D10120BDE8A8
:1055F000F883206883699D4227D3B9F1000FCCD08E
:10560000E168FFF772FF0546002831D00128E8D095
:10561000431CEBD02068FFF7A8FC01460028E5D129
:1056200020684FF400723430FFF7E7FB2268294608
:105630001046FFF753FE4FF001091063206883788E
:105640009F4209D3036BDF1B0763E560294620688F
:10565000FFF744FE2061B1E780F80490FFF762FC99
:105660000028C3D122680137136B01331363E5E7C8
:105670000720BDE8F883FFFF2DE9F74F4FF0FF0843
:105680004FF6FF7706464446078431693068FFF7D6
:10569000ADFC824600285ED175692B78002B76D050
:1056A000E52B06D0E97A01F03F02090703D50F2A5E
:1056B00003D0378447E00F2A54D1D6F81CB0BBF191
:1056C000000F41D058063CD503F0BF04F38895F88D
:1056D0000D8033846B7B434535D195F800A00120C4
:1056E0002AF0400A0AF1FF334FF00D0A4FF000098B
:1056F0000AFB03FA274B19F80320AA5A78B310467D
:10570000FEF778FCBAF17F0F01901CD80AF1010274
:105710003BF81A000092FEF76DFC0199814212D10C
:10572000009A924609F10109B9F10D0FE2D12B78E7
:10573000590603D510B13BF81A3023B9013CE4B245
:1057400002E0A342C6D0FF2400213046FFF71DFF30
:105750008246002899D0504603B0BDE8F08FBA4287
:10576000E0D0F0E724B92846FFF74EFB4045F2D0E1
:10577000B369DA7AD2079CD403F10B009842EAD0DD
:1057800015F8011B13F8012B9142F7D091E74FF068
:10579000040AE0E7484D02002DE9F74F0B78074671
:1057A0002F2B884601D05C2B01D108F10108002481
:1057B000BC6098F800301F2B00F2908021463846DC
:1057C000FFF7EAFD7C6103B0BDE8F08F25F8020F1A
:1057D000464693E02028A04434BF042400240BEB69
:1057E0004602002E00F0A98032F8021D202902D0C6
:1057F0002E2940F0A680013EF3E701313BF811204D
:10580000202AFAD02E2AF8D009B144F003044A46DF
:1058100032F8020D2E2801D0013EF9D14FF0000AD6
:105820004FF0080955463BF811004A1C002800F0CB
:105830009F80202804D02E2806D1B24200F08D800F
:1058400044F003041146EEE7CA4580F08980B24275
:1058500011D1B9F10B0F06D186E0B24203D044F06A
:10586000030400F28580AD00EDB232464FF00B0923
:105870004FF0080AE6E77F280DD900210192FEF7D4
:105880009BFB019A18B15D4B184410F8800C80B254
:1058900044F0020438B15A4B13F8011F002900F0FC
:1058A0009F808142F8D15F2044F00304B96901F878
:1058B0000A000AF1010AC5E745F00205F6E75A07B2
:1058C00081D47A69D37ADB0639D53968538B097864
:1058D000032904BF928A43EA0243BB6098F8003070
:1058E00044462F2B08F10108F8D05C2BF6D0002697
:1058F000D7F81CB004F1FF39ABF1020519F8010F1C
:1059000006F101081F287FF665AF2F283FF462AF2C
:105910005C283FF45FAFB8F1810F0ED00121FEF794
:105920004BFB50B17F283FF651AF364911F8012F9C
:10593000002A3FF44BAF8242F8D1062043E705200E
:1059400041E7002520212BF816500B22B869FFF7FC
:1059500054FA0BEB4609294650E7CA45FFF479AFE4
:10596000B9F10B0F7FF479AF4FF00B0944F003044A
:10597000BB691A78E52A04BF05221A70B9F1080F2D
:1059800004BFAD00EDB205F00C030C2B03D005F005
:105990000302032A01D144F00204A10709D405F04F
:1059A0000305012D08BF44F01004042B08BF44F088
:1059B0000804BB690021DC723846FFF7EDFC10B922
:1059C0003846FFF759FEBB69DB7A00283FF477AF12
:1059D00004287FF4F8AE13F0040F08BF0520F2E6A8
:1059E000A0F1410119297FF667AFA0F161011929E2
:1059F0009EBF203845F0010580B257E7C84C020031
:105A0000A84D02009F4D02000C222DE9F04386694B
:105A100087B0C769044631460DEB0200FFF7D1F9A4
:105A20009DF81730DB0779D500234FF00109DFF827
:105A30000882F372E3610B2203A93046FFF7C1F934
:105A4000B9F1050F4FD84B46072203F00F0000F1C4
:105A50003001392988BF00F13701013A01A810440B
:105A60001B094170F1D17E2006A9114401F8140CE4
:105A70009A423DD0F15C202938D13344072A8FBFA8
:105A8000202106A9891811F8141C98BF013203F8C7
:105A9000011B991B0729F1D900212046FFF77CFC47
:105AA0000546A8BB2046FFF7E7FD054680BB09F188
:105AB0000109B9F1640FBED10725284607B0BDE83A
:105AC000F083102102F0010505EB4303DD0348BF1D
:105AD00083EA080301394FEA5202F3D130F8022F6A
